{
  "_format": "hh-sol-artifact-1",
  "contractName": "NFT",
  "sourceName": "contracts/nft.sol",
  "abi": [
    {
      "inputs": [],
      "stateMutability": "nonpayable",
      "type": "constructor"
    },
    {
      "anonymous": false,
      "inputs": [
        {
          "indexed": true,
          "internalType": "address",
          "name": "owner",
          "type": "address"
        },
        {
          "indexed": true,
          "internalType": "address",
          "name": "approved",
          "type": "address"
        },
        {
          "indexed": true,
          "internalType": "uint256",
          "name": "tokenId",
          "type": "uint256"
        }
      ],
      "name": "Approval",
      "type": "event"
    },
    {
      "anonymous": false,
      "inputs": [
        {
          "indexed": true,
          "internalType": "address",
          "name": "owner",
          "type": "address"
        },
        {
          "indexed": true,
          "internalType": "address",
          "name": "operator",
          "type": "address"
        },
        {
          "indexed": false,
          "internalType": "bool",
          "name": "approved",
          "type": "bool"
        }
      ],
      "name": "ApprovalForAll",
      "type": "event"
    },
    {
      "anonymous": false,
      "inputs": [
        {
          "indexed": true,
          "internalType": "address",
          "name": "previousOwner",
          "type": "address"
        },
        {
          "indexed": true,
          "internalType": "address",
          "name": "newOwner",
          "type": "address"
        }
      ],
      "name": "OwnershipTransferred",
      "type": "event"
    },
    {
      "anonymous": false,
      "inputs": [
        {
          "indexed": true,
          "internalType": "address",
          "name": "from",
          "type": "address"
        },
        {
          "indexed": true,
          "internalType": "address",
          "name": "to",
          "type": "address"
        },
        {
          "indexed": true,
          "internalType": "uint256",
          "name": "tokenId",
          "type": "uint256"
        }
      ],
      "name": "Transfer",
      "type": "event"
    },
    {
      "inputs": [],
      "name": "_tokenIdCounter",
      "outputs": [
        {
          "internalType": "uint256",
          "name": "_value",
          "type": "uint256"
        }
      ],
      "stateMutability": "view",
      "type": "function"
    },
    {
      "inputs": [
        {
          "internalType": "address",
          "name": "to",
          "type": "address"
        },
        {
          "internalType": "uint256",
          "name": "tokenId",
          "type": "uint256"
        }
      ],
      "name": "approve",
      "outputs": [],
      "stateMutability": "nonpayable",
      "type": "function"
    },
    {
      "inputs": [
        {
          "internalType": "address",
          "name": "owner",
          "type": "address"
        }
      ],
      "name": "balanceOf",
      "outputs": [
        {
          "internalType": "uint256",
          "name": "",
          "type": "uint256"
        }
      ],
      "stateMutability": "view",
      "type": "function"
    },
    {
      "inputs": [
        {
          "internalType": "uint256",
          "name": "tokenId",
          "type": "uint256"
        }
      ],
      "name": "getApproved",
      "outputs": [
        {
          "internalType": "address",
          "name": "",
          "type": "address"
        }
      ],
      "stateMutability": "view",
      "type": "function"
    },
    {
      "inputs": [
        {
          "internalType": "address",
          "name": "owner",
          "type": "address"
        },
        {
          "internalType": "address",
          "name": "operator",
          "type": "address"
        }
      ],
      "name": "isApprovedForAll",
      "outputs": [
        {
          "internalType": "bool",
          "name": "",
          "type": "bool"
        }
      ],
      "stateMutability": "view",
      "type": "function"
    },
    {
      "inputs": [],
      "name": "name",
      "outputs": [
        {
          "internalType": "string",
          "name": "",
          "type": "string"
        }
      ],
      "stateMutability": "view",
      "type": "function"
    },
    {
      "inputs": [],
      "name": "owner",
      "outputs": [
        {
          "internalType": "address",
          "name": "",
          "type": "address"
        }
      ],
      "stateMutability": "view",
      "type": "function"
    },
    {
      "inputs": [
        {
          "internalType": "uint256",
          "name": "tokenId",
          "type": "uint256"
        }
      ],
      "name": "ownerOf",
      "outputs": [
        {
          "internalType": "address",
          "name": "",
          "type": "address"
        }
      ],
      "stateMutability": "view",
      "type": "function"
    },
    {
      "inputs": [],
      "name": "renounceOwnership",
      "outputs": [],
      "stateMutability": "nonpayable",
      "type": "function"
    },
    {
      "inputs": [
        {
          "internalType": "string",
          "name": "uri",
          "type": "string"
        }
      ],
      "name": "safeMint",
      "outputs": [
        {
          "internalType": "uint256",
          "name": "",
          "type": "uint256"
        }
      ],
      "stateMutability": "nonpayable",
      "type": "function"
    },
    {
      "inputs": [
        {
          "internalType": "address",
          "name": "from",
          "type": "address"
        },
        {
          "internalType": "address",
          "name": "to",
          "type": "address"
        },
        {
          "internalType": "uint256",
          "name": "tokenId",
          "type": "uint256"
        }
      ],
      "name": "safeTransferFrom",
      "outputs": [],
      "stateMutability": "nonpayable",
      "type": "function"
    },
    {
      "inputs": [
        {
          "internalType": "address",
          "name": "from",
          "type": "address"
        },
        {
          "internalType": "address",
          "name": "to",
          "type": "address"
        },
        {
          "internalType": "uint256",
          "name": "tokenId",
          "type": "uint256"
        },
        {
          "internalType": "bytes",
          "name": "data",
          "type": "bytes"
        }
      ],
      "name": "safeTransferFrom",
      "outputs": [],
      "stateMutability": "nonpayable",
      "type": "function"
    },
    {
      "inputs": [
        {
          "internalType": "address",
          "name": "operator",
          "type": "address"
        },
        {
          "internalType": "bool",
          "name": "approved",
          "type": "bool"
        }
      ],
      "name": "setApprovalForAll",
      "outputs": [],
      "stateMutability": "nonpayable",
      "type": "function"
    },
    {
      "inputs": [
        {
          "internalType": "bytes4",
          "name": "interfaceId",
          "type": "bytes4"
        }
      ],
      "name": "supportsInterface",
      "outputs": [
        {
          "internalType": "bool",
          "name": "",
          "type": "bool"
        }
      ],
      "stateMutability": "view",
      "type": "function"
    },
    {
      "inputs": [],
      "name": "symbol",
      "outputs": [
        {
          "internalType": "string",
          "name": "",
          "type": "string"
        }
      ],
      "stateMutability": "view",
      "type": "function"
    },
    {
      "inputs": [
        {
          "internalType": "uint256",
          "name": "tokenId",
          "type": "uint256"
        }
      ],
      "name": "tokenURI",
      "outputs": [
        {
          "internalType": "string",
          "name": "",
          "type": "string"
        }
      ],
      "stateMutability": "view",
      "type": "function"
    },
    {
      "inputs": [
        {
          "internalType": "address",
          "name": "from",
          "type": "address"
        },
        {
          "internalType": "address",
          "name": "to",
          "type": "address"
        },
        {
          "internalType": "uint256",
          "name": "tokenId",
          "type": "uint256"
        }
      ],
      "name": "transferFrom",
      "outputs": [],
      "stateMutability": "nonpayable",
      "type": "function"
    },
    {
      "inputs": [
        {
          "internalType": "address",
          "name": "newOwner",
          "type": "address"
        }
      ],
      "name": "transferOwnership",
      "outputs": [],
      "stateMutability": "nonpayable",
      "type": "function"
    }
  ],
  "bytecode": "0x60806040523480156200001157600080fd5b506040518060400160405280600781526020017f6d79546f6b656e000000000000000000000000000000000000000000000000008152506040518060400160405280600381526020017f4d52540000000000000000000000000000000000000000000000000000000000815250816000908051906020019062000096929190620001a6565b508060019080519060200190620000af929190620001a6565b505050620000d2620000c6620000d860201b60201c565b620000e060201b60201c565b620002bb565b600033905090565b6000600760009054906101000a900473ffffffffffffffffffffffffffffffffffffffff16905081600760006101000a81548173ffffffffffffffffffffffffffffffffffffffff021916908373ffffffffffffffffffffffffffffffffffffffff1602179055508173ffffffffffffffffffffffffffffffffffffffff168173ffffffffffffffffffffffffffffffffffffffff167f8be0079c531659141344cd1fd0a4f28419497f9722a3daafe3b4186f6b6457e060405160405180910390a35050565b828054620001b49062000256565b90600052602060002090601f016020900481019282620001d8576000855562000224565b82601f10620001f357805160ff191683800117855562000224565b8280016001018555821562000224579182015b828111156200022357825182559160200191906001019062000206565b5b50905062000233919062000237565b5090565b5b808211156200025257600081600090555060010162000238565b5090565b600060028204905060018216806200026f57607f821691505b602082108114156200028657620002856200028c565b5b50919050565b7f4e487b7100000000000000000000000000000000000000000000000000000000600052602260045260246000fd5b612c8580620002cb6000396000f3fe608060405234801561001057600080fd5b50600436106101165760003560e01c8063715018a6116100a2578063a22cb46511610071578063a22cb465146102e1578063b88d4fde146102fd578063c87b56dd14610319578063e985e9c514610349578063f2fde38b1461037957610116565b8063715018a61461027d57806384c4bd4b146102875780638da5cb5b146102a557806395d89b41146102c357610116565b806323b872dd116100e957806323b872dd146101b557806342842e0e146101d15780636352211e146101ed578063695850fb1461021d57806370a082311461024d57610116565b806301ffc9a71461011b57806306fdde031461014b578063081812fc14610169578063095ea7b314610199575b600080fd5b61013560048036038101906101309190611e61565b610395565b6040516101429190612262565b60405180910390f35b610153610477565b604051610160919061227d565b60405180910390f35b610183600480360381019061017e9190611ef4565b610509565b60405161019091906121fb565b60405180910390f35b6101b360048036038101906101ae9190611e25565b61054f565b005b6101cf60048036038101906101ca9190611d1f565b610667565b005b6101eb60048036038101906101e69190611d1f565b6106c7565b005b61020760048036038101906102029190611ef4565b6106e7565b60405161021491906121fb565b60405180910390f35b61023760048036038101906102329190611eb3565b610799565b604051610244919061245f565b60405180910390f35b61026760048036038101906102629190611cba565b6107cf565b604051610274919061245f565b60405180910390f35b610285610887565b005b61028f61089b565b60405161029c919061245f565b60405180910390f35b6102ad6108a7565b6040516102ba91906121fb565b60405180910390f35b6102cb6108d1565b6040516102d8919061227d565b60405180910390f35b6102fb60048036038101906102f69190611de9565b610963565b005b61031760048036038101906103129190611d6e565b610979565b005b610333600480360381019061032e9190611ef4565b6109db565b604051610340919061227d565b60405180910390f35b610363600480360381019061035e9190611ce3565b6109ed565b6040516103709190612262565b60405180910390f35b610393600480360381019061038e9190611cba565b610a81565b005b60007f80ac58cd000000000000000000000000000000000000000000000000000000007bffffffffffffffffffffffffffffffffffffffffffffffffffffffff1916827bffffffffffffffffffffffffffffffffffffffffffffffffffffffff1916148061046057507f5b5e139f000000000000000000000000000000000000000000000000000000007bffffffffffffffffffffffffffffffffffffffffffffffffffffffff1916827bffffffffffffffffffffffffffffffffffffffffffffffffffffffff1916145b80610470575061046f82610b05565b5b9050919050565b606060008054610486906126b5565b80601f01602080910402602001604051908101604052809291908181526020018280546104b2906126b5565b80156104ff5780601f106104d4576101008083540402835291602001916104ff565b820191906000526020600020905b8154815290600101906020018083116104e257829003601f168201915b5050505050905090565b600061051482610b6f565b6004600083815260200190815260200160002060009054906101000a900473ffffffffffffffffffffffffffffffffffffffff169050919050565b600061055a826106e7565b90508073ffffffffffffffffffffffffffffffffffffffff168373ffffffffffffffffffffffffffffffffffffffff1614156105cb576040517f08c379a00000000000000000000000000000000000000000000000000000000081526004016105c29061241f565b60405180910390fd5b8073ffffffffffffffffffffffffffffffffffffffff166105ea610bba565b73ffffffffffffffffffffffffffffffffffffffff161480610619575061061881610613610bba565b6109ed565b5b610658576040517f08c379a000000000000000000000000000000000000000000000000000000000815260040161064f9061239f565b60405180910390fd5b6106628383610bc2565b505050565b610678610672610bba565b82610c7b565b6106b7576040517f08c379a00000000000000000000000000000000000000000000000000000000081526004016106ae9061243f565b60405180910390fd5b6106c2838383610d10565b505050565b6106e283838360405180602001604052806000815250610979565b505050565b6000806002600084815260200190815260200160002060009054906101000a900473ffffffffffffffffffffffffffffffffffffffff169050600073ffffffffffffffffffffffffffffffffffffffff168173ffffffffffffffffffffffffffffffffffffffff161415610790576040517f08c379a0000000000000000000000000000000000000000000000000000000008152600401610787906123ff565b60405180910390fd5b80915050919050565b6000806107a66008610f77565b90506107b26008610f85565b6107bc3382610f9b565b6107c68184610fb9565b80915050919050565b60008073ffffffffffffffffffffffffffffffffffffffff168273ffffffffffffffffffffffffffffffffffffffff161415610840576040517f08c379a00000000000000000000000000000000000000000000000000000000081526004016108379061235f565b60405180910390fd5b600360008373ffffffffffffffffffffffffffffffffffffffff1673ffffffffffffffffffffffffffffffffffffffff168152602001908152602001600020549050919050565b61088f61102d565b61089960006110ab565b565b60088060000154905081565b6000600760009054906101000a900473ffffffffffffffffffffffffffffffffffffffff16905090565b6060600180546108e0906126b5565b80601f016020809104026020016040519081016040528092919081815260200182805461090c906126b5565b80156109595780601f1061092e57610100808354040283529160200191610959565b820191906000526020600020905b81548152906001019060200180831161093c57829003601f168201915b5050505050905090565b61097561096e610bba565b8383611171565b5050565b61098a610984610bba565b83610c7b565b6109c9576040517f08c379a00000000000000000000000000000000000000000000000000000000081526004016109c09061243f565b60405180910390fd5b6109d5848484846112de565b50505050565b60606109e68261133a565b9050919050565b6000600560008473ffffffffffffffffffffffffffffffffffffffff1673ffffffffffffffffffffffffffffffffffffffff16815260200190815260200160002060008373ffffffffffffffffffffffffffffffffffffffff1673ffffffffffffffffffffffffffffffffffffffff16815260200190815260200160002060009054906101000a900460ff16905092915050565b610a8961102d565b600073ffffffffffffffffffffffffffffffffffffffff168173ffffffffffffffffffffffffffffffffffffffff161415610af9576040517f08c379a0000000000000000000000000000000000000000000000000000000008152600401610af0906122bf565b60405180910390fd5b610b02816110ab565b50565b60007f01ffc9a7000000000000000000000000000000000000000000000000000000007bffffffffffffffffffffffffffffffffffffffffffffffffffffffff1916827bffffffffffffffffffffffffffffffffffffffffffffffffffffffff1916149050919050565b610b788161144d565b610bb7576040517f08c379a0000000000000000000000000000000000000000000000000000000008152600401610bae906123ff565b60405180910390fd5b50565b600033905090565b816004600083815260200190815260200160002060006101000a81548173ffffffffffffffffffffffffffffffffffffffff021916908373ffffffffffffffffffffffffffffffffffffffff160217905550808273ffffffffffffffffffffffffffffffffffffffff16610c35836106e7565b73ffffffffffffffffffffffffffffffffffffffff167f8c5be1e5ebec7d5bd14f71427d1e84f3dd0314c0f7b2291e5b200ac8c7c3b92560405160405180910390a45050565b600080610c87836106e7565b90508073ffffffffffffffffffffffffffffffffffffffff168473ffffffffffffffffffffffffffffffffffffffff161480610cc95750610cc881856109ed565b5b80610d0757508373ffffffffffffffffffffffffffffffffffffffff16610cef84610509565b73ffffffffffffffffffffffffffffffffffffffff16145b91505092915050565b8273ffffffffffffffffffffffffffffffffffffffff16610d30826106e7565b73ffffffffffffffffffffffffffffffffffffffff1614610d86576040517f08c379a0000000000000000000000000000000000000000000000000000000008152600401610d7d906122df565b60405180910390fd5b600073ffffffffffffffffffffffffffffffffffffffff168273ffffffffffffffffffffffffffffffffffffffff161415610df6576040517f08c379a0000000000000000000000000000000000000000000000000000000008152600401610ded9061231f565b60405180910390fd5b610e018383836114b9565b610e0c600082610bc2565b6001600360008573ffffffffffffffffffffffffffffffffffffffff1673ffffffffffffffffffffffffffffffffffffffff1681526020019081526020016000206000828254610e5c91906125cb565b925050819055506001600360008473ffffffffffffffffffffffffffffffffffffffff1673ffffffffffffffffffffffffffffffffffffffff1681526020019081526020016000206000828254610eb39190612544565b92505081905550816002600083815260200190815260200160002060006101000a81548173ffffffffffffffffffffffffffffffffffffffff021916908373ffffffffffffffffffffffffffffffffffffffff160217905550808273ffffffffffffffffffffffffffffffffffffffff168473ffffffffffffffffffffffffffffffffffffffff167fddf252ad1be2c89b69c2b068fc378daa952ba7f163c4a11628f55a4df523b3ef60405160405180910390a4610f728383836114be565b505050565b600081600001549050919050565b6001816000016000828254019250508190555050565b610fb58282604051806020016040528060008152506114c3565b5050565b610fc28261144d565b611001576040517f08c379a0000000000000000000000000000000000000000000000000000000008152600401610ff89061237f565b60405180910390fd5b80600660008481526020019081526020016000209080519060200190611028929190611ade565b505050565b611035610bba565b73ffffffffffffffffffffffffffffffffffffffff166110536108a7565b73ffffffffffffffffffffffffffffffffffffffff16146110a9576040517f08c379a00000000000000000000000000000000000000000000000000000000081526004016110a0906123df565b60405180910390fd5b565b6000600760009054906101000a900473ffffffffffffffffffffffffffffffffffffffff16905081600760006101000a81548173ffffffffffffffffffffffffffffffffffffffff021916908373ffffffffffffffffffffffffffffffffffffffff1602179055508173ffffffffffffffffffffffffffffffffffffffff168173ffffffffffffffffffffffffffffffffffffffff167f8be0079c531659141344cd1fd0a4f28419497f9722a3daafe3b4186f6b6457e060405160405180910390a35050565b8173ffffffffffffffffffffffffffffffffffffffff168373ffffffffffffffffffffffffffffffffffffffff1614156111e0576040517f08c379a00000000000000000000000000000000000000000000000000000000081526004016111d79061233f565b60405180910390fd5b80600560008573ffffffffffffffffffffffffffffffffffffffff1673ffffffffffffffffffffffffffffffffffffffff16815260200190815260200160002060008473ffffffffffffffffffffffffffffffffffffffff1673ffffffffffffffffffffffffffffffffffffffff16815260200190815260200160002060006101000a81548160ff0219169083151502179055508173ffffffffffffffffffffffffffffffffffffffff168373ffffffffffffffffffffffffffffffffffffffff167f17307eab39ab6107e8899845ad3d59bd9653f200f220920489ca2b5937696c31836040516112d19190612262565b60405180910390a3505050565b6112e9848484610d10565b6112f58484848461151e565b611334576040517f08c379a000000000000000000000000000000000000000000000000000000000815260040161132b9061229f565b60405180910390fd5b50505050565b606061134582610b6f565b6000600660008481526020019081526020016000208054611365906126b5565b80601f0160208091040260200160405190810160405280929190818152602001828054611391906126b5565b80156113de5780601f106113b3576101008083540402835291602001916113de565b820191906000526020600020905b8154815290600101906020018083116113c157829003601f168201915b5050505050905060006113ef6116b5565b9050600081511415611405578192505050611448565b60008251111561143a5780826040516020016114229291906121d7565b60405160208183030381529060405292505050611448565b611443846116cc565b925050505b919050565b60008073ffffffffffffffffffffffffffffffffffffffff166002600084815260200190815260200160002060009054906101000a900473ffffffffffffffffffffffffffffffffffffffff1673ffffffffffffffffffffffffffffffffffffffff1614159050919050565b505050565b505050565b6114cd8383611734565b6114da600084848461151e565b611519576040517f08c379a00000000000000000000000000000000000000000000000000000000081526004016115109061229f565b60405180910390fd5b505050565b600061153f8473ffffffffffffffffffffffffffffffffffffffff1661190e565b156116a8578373ffffffffffffffffffffffffffffffffffffffff1663150b7a02611568610bba565b8786866040518563ffffffff1660e01b815260040161158a9493929190612216565b602060405180830381600087803b1580156115a457600080fd5b505af19250505080156115d557506040513d601f19601f820116820180604052508101906115d29190611e8a565b60015b611658573d8060008114611605576040519150601f19603f3d011682016040523d82523d6000602084013e61160a565b606091505b50600081511415611650576040517f08c379a00000000000000000000000000000000000000000000000000000000081526004016116479061229f565b60405180910390fd5b805181602001fd5b63150b7a0260e01b7bffffffffffffffffffffffffffffffffffffffffffffffffffffffff1916817bffffffffffffffffffffffffffffffffffffffffffffffffffffffff1916149150506116ad565b600190505b949350505050565b606060405180602001604052806000815250905090565b60606116d782610b6f565b60006116e16116b5565b90506000815111611701576040518060200160405280600081525061172c565b8061170b84611931565b60405160200161171c9291906121d7565b6040516020818303038152906040525b915050919050565b600073ffffffffffffffffffffffffffffffffffffffff168273ffffffffffffffffffffffffffffffffffffffff1614156117a4576040517f08c379a000000000000000000000000000000000000000000000000000000000815260040161179b906123bf565b60405180910390fd5b6117ad8161144d565b156117ed576040517f08c379a00000000000000000000000000000000000000000000000000000000081526004016117e4906122ff565b60405180910390fd5b6117f9600083836114b9565b6001600360008473ffffffffffffffffffffffffffffffffffffffff1673ffffffffffffffffffffffffffffffffffffffff16815260200190815260200160002060008282546118499190612544565b92505081905550816002600083815260200190815260200160002060006101000a81548173ffffffffffffffffffffffffffffffffffffffff021916908373ffffffffffffffffffffffffffffffffffffffff160217905550808273ffffffffffffffffffffffffffffffffffffffff16600073ffffffffffffffffffffffffffffffffffffffff167fddf252ad1be2c89b69c2b068fc378daa952ba7f163c4a11628f55a4df523b3ef60405160405180910390a461190a600083836114be565b5050565b6000808273ffffffffffffffffffffffffffffffffffffffff163b119050919050565b60606000821415611979576040518060400160405280600181526020017f30000000000000000000000000000000000000000000000000000000000000008152509050611ad9565b600082905060005b600082146119ab57808061199490612718565b915050600a826119a4919061259a565b9150611981565b60008167ffffffffffffffff8111156119ed577f4e487b7100000000000000000000000000000000000000000000000000000000600052604160045260246000fd5b6040519080825280601f01601f191660200182016040528015611a1f5781602001600182028036833780820191505090505b5090505b60008514611ad257600182611a3891906125cb565b9150600a85611a479190612761565b6030611a539190612544565b60f81b818381518110611a8f577f4e487b7100000000000000000000000000000000000000000000000000000000600052603260045260246000fd5b60200101907effffffffffffffffffffffffffffffffffffffffffffffffffffffffffffff1916908160001a905350600a85611acb919061259a565b9450611a23565b8093505050505b919050565b828054611aea906126b5565b90600052602060002090601f016020900481019282611b0c5760008555611b53565b82601f10611b2557805160ff1916838001178555611b53565b82800160010185558215611b53579182015b82811115611b52578251825591602001919060010190611b37565b5b509050611b609190611b64565b5090565b5b80821115611b7d576000816000905550600101611b65565b5090565b6000611b94611b8f8461249f565b61247a565b905082815260208101848484011115611bac57600080fd5b611bb7848285612673565b509392505050565b6000611bd2611bcd846124d0565b61247a565b905082815260208101848484011115611bea57600080fd5b611bf5848285612673565b509392505050565b600081359050611c0c81612bf3565b92915050565b600081359050611c2181612c0a565b92915050565b600081359050611c3681612c21565b92915050565b600081519050611c4b81612c21565b92915050565b600082601f830112611c6257600080fd5b8135611c72848260208601611b81565b91505092915050565b600082601f830112611c8c57600080fd5b8135611c9c848260208601611bbf565b91505092915050565b600081359050611cb481612c38565b92915050565b600060208284031215611ccc57600080fd5b6000611cda84828501611bfd565b91505092915050565b60008060408385031215611cf657600080fd5b6000611d0485828601611bfd565b9250506020611d1585828601611bfd565b9150509250929050565b600080600060608486031215611d3457600080fd5b6000611d4286828701611bfd565b9350506020611d5386828701611bfd565b9250506040611d6486828701611ca5565b9150509250925092565b60008060008060808587031215611d8457600080fd5b6000611d9287828801611bfd565b9450506020611da387828801611bfd565b9350506040611db487828801611ca5565b925050606085013567ffffffffffffffff811115611dd157600080fd5b611ddd87828801611c51565b91505092959194509250565b60008060408385031215611dfc57600080fd5b6000611e0a85828601611bfd565b9250506020611e1b85828601611c12565b9150509250929050565b60008060408385031215611e3857600080fd5b6000611e4685828601611bfd565b9250506020611e5785828601611ca5565b9150509250929050565b600060208284031215611e7357600080fd5b6000611e8184828501611c27565b91505092915050565b600060208284031215611e9c57600080fd5b6000611eaa84828501611c3c565b91505092915050565b600060208284031215611ec557600080fd5b600082013567ffffffffffffffff811115611edf57600080fd5b611eeb84828501611c7b565b91505092915050565b600060208284031215611f0657600080fd5b6000611f1484828501611ca5565b91505092915050565b611f26816125ff565b82525050565b611f3581612611565b82525050565b6000611f4682612501565b611f508185612517565b9350611f60818560208601612682565b611f698161284e565b840191505092915050565b6000611f7f8261250c565b611f898185612528565b9350611f99818560208601612682565b611fa28161284e565b840191505092915050565b6000611fb88261250c565b611fc28185612539565b9350611fd2818560208601612682565b80840191505092915050565b6000611feb603283612528565b9150611ff68261285f565b604082019050919050565b600061200e602683612528565b9150612019826128ae565b604082019050919050565b6000612031602583612528565b915061203c826128fd565b604082019050919050565b6000612054601c83612528565b915061205f8261294c565b602082019050919050565b6000612077602483612528565b915061208282612975565b604082019050919050565b600061209a601983612528565b91506120a5826129c4565b602082019050919050565b60006120bd602983612528565b91506120c8826129ed565b604082019050919050565b60006120e0602e83612528565b91506120eb82612a3c565b604082019050919050565b6000612103603e83612528565b915061210e82612a8b565b604082019050919050565b6000612126602083612528565b915061213182612ada565b602082019050919050565b6000612149602083612528565b915061215482612b03565b602082019050919050565b600061216c601883612528565b915061217782612b2c565b602082019050919050565b600061218f602183612528565b915061219a82612b55565b604082019050919050565b60006121b2602e83612528565b91506121bd82612ba4565b604082019050919050565b6121d181612669565b82525050565b60006121e38285611fad565b91506121ef8284611fad565b91508190509392505050565b60006020820190506122106000830184611f1d565b92915050565b600060808201905061222b6000830187611f1d565b6122386020830186611f1d565b61224560408301856121c8565b81810360608301526122578184611f3b565b905095945050505050565b60006020820190506122776000830184611f2c565b92915050565b600060208201905081810360008301526122978184611f74565b905092915050565b600060208201905081810360008301526122b881611fde565b9050919050565b600060208201905081810360008301526122d881612001565b9050919050565b600060208201905081810360008301526122f881612024565b9050919050565b6000602082019050818103600083015261231881612047565b9050919050565b600060208201905081810360008301526123388161206a565b9050919050565b600060208201905081810360008301526123588161208d565b9050919050565b60006020820190508181036000830152612378816120b0565b9050919050565b60006020820190508181036000830152612398816120d3565b9050919050565b600060208201905081810360008301526123b8816120f6565b9050919050565b600060208201905081810360008301526123d881612119565b9050919050565b600060208201905081810360008301526123f88161213c565b9050919050565b600060208201905081810360008301526124188161215f565b9050919050565b6000602082019050818103600083015261243881612182565b9050919050565b60006020820190508181036000830152612458816121a5565b9050919050565b600060208201905061247460008301846121c8565b92915050565b6000612484612495565b905061249082826126e7565b919050565b6000604051905090565b600067ffffffffffffffff8211156124ba576124b961281f565b5b6124c38261284e565b9050602081019050919050565b600067ffffffffffffffff8211156124eb576124ea61281f565b5b6124f48261284e565b9050602081019050919050565b600081519050919050565b600081519050919050565b600082825260208201905092915050565b600082825260208201905092915050565b600081905092915050565b600061254f82612669565b915061255a83612669565b9250827fffffffffffffffffffffffffffffffffffffffffffffffffffffffffffffffff0382111561258f5761258e612792565b5b828201905092915050565b60006125a582612669565b91506125b083612669565b9250826125c0576125bf6127c1565b5b828204905092915050565b60006125d682612669565b91506125e183612669565b9250828210156125f4576125f3612792565b5b828203905092915050565b600061260a82612649565b9050919050565b60008115159050919050565b60007fffffffff0000000000000000000000000000000000000000000000000000000082169050919050565b600073ffffffffffffffffffffffffffffffffffffffff82169050919050565b6000819050919050565b82818337600083830152505050565b60005b838110156126a0578082015181840152602081019050612685565b838111156126af576000848401525b50505050565b600060028204905060018216806126cd57607f821691505b602082108114156126e1576126e06127f0565b5b50919050565b6126f08261284e565b810181811067ffffffffffffffff8211171561270f5761270e61281f565b5b80604052505050565b600061272382612669565b91507fffffffffffffffffffffffffffffffffffffffffffffffffffffffffffffffff82141561275657612755612792565b5b600182019050919050565b600061276c82612669565b915061277783612669565b925082612787576127866127c1565b5b828206905092915050565b7f4e487b7100000000000000000000000000000000000000000000000000000000600052601160045260246000fd5b7f4e487b7100000000000000000000000000000000000000000000000000000000600052601260045260246000fd5b7f4e487b7100000000000000000000000000000000000000000000000000000000600052602260045260246000fd5b7f4e487b7100000000000000000000000000000000000000000000000000000000600052604160045260246000fd5b6000601f19601f8301169050919050565b7f4552433732313a207472616e7366657220746f206e6f6e20455243373231526560008201527f63656976657220696d706c656d656e7465720000000000000000000000000000602082015250565b7f4f776e61626c653a206e6577206f776e657220697320746865207a65726f206160008201527f6464726573730000000000000000000000000000000000000000000000000000602082015250565b7f4552433732313a207472616e736665722066726f6d20696e636f72726563742060008201527f6f776e6572000000000000000000000000000000000000000000000000000000602082015250565b7f4552433732313a20746f6b656e20616c7265616479206d696e74656400000000600082015250565b7f4552433732313a207472616e7366657220746f20746865207a65726f2061646460008201527f7265737300000000000000000000000000000000000000000000000000000000602082015250565b7f4552433732313a20617070726f766520746f2063616c6c657200000000000000600082015250565b7f4552433732313a2061646472657373207a65726f206973206e6f74206120766160008201527f6c6964206f776e65720000000000000000000000000000000000000000000000602082015250565b7f45524337323155524953746f726167653a2055524920736574206f66206e6f6e60008201527f6578697374656e7420746f6b656e000000000000000000000000000000000000602082015250565b7f4552433732313a20617070726f76652063616c6c6572206973206e6f7420746f60008201527f6b656e206f776e6572206e6f7220617070726f76656420666f7220616c6c0000602082015250565b7f4552433732313a206d696e7420746f20746865207a65726f2061646472657373600082015250565b7f4f776e61626c653a2063616c6c6572206973206e6f7420746865206f776e6572600082015250565b7f4552433732313a20696e76616c696420746f6b656e2049440000000000000000600082015250565b7f4552433732313a20617070726f76616c20746f2063757272656e74206f776e6560008201527f7200000000000000000000000000000000000000000000000000000000000000602082015250565b7f4552433732313a2063616c6c6572206973206e6f7420746f6b656e206f776e6560008201527f72206e6f7220617070726f766564000000000000000000000000000000000000602082015250565b612bfc816125ff565b8114612c0757600080fd5b50565b612c1381612611565b8114612c1e57600080fd5b50565b612c2a8161261d565b8114612c3557600080fd5b50565b612c4181612669565b8114612c4c57600080fd5b5056fea2646970667358221220a51035cbd185eef21b43c16490f09c4ea96849fd70b28d1759b74f04387dc46364736f6c63430008040033",
  "linkReferences": {},
  "deployedLinkReferences": {}
}